:100000000C94D0000C9401070C94DA060C94F800C0
:100010000C94F8000C94F8000C94F8000C94F80080
:100020000C94F8000C94F8000C94F8000C94F80070
:100030000C94F8000C94F8000C94F8000C94F80060
:100040000C9490060C94F8000C945E060C94380600
:100050000C94F8000C94F8000C94F8000C94F80040
:100060000C94F8000C94F80000407A10F35A00A0A9
:10007000724E18090010A5D4E80000E87648170071
:1000800000E40B54020000CA9A3B000000E1F505B1
:10009000000080969800000040420F000000A086FB
:1000A00001000000102700000000E803000000002D
:1000B0006400000000000A000000000001000000D1
:1000C00000002C76D888DC674F0823DFC1DFAE59EB
:1000D000E1B1B796E5E3E453C63AE651997696E87E
:1000E000E6C28426EB898C9B62ED407C6FFCEFBC02
:1000F0009C9F40F2BAA56FA5F490055A2AF75C932D
:100100006B6CF9676DC11BFCE0E40D47FEF520E662
:10011000B500D0ED902E0300943577050080841E45
:10012000080000204E0A000000C80C333333330FA0
:10013000986E12831141EF8D2114893BE65516CF3D
:10014000FEE6DB18D1844B381BF77C1D901DA4BB49
:10015000E424203284725E228100C9F124ECA1E5FE
:100160003D2700000000250028002B0000000000B3
:10017000240027002A0004040404040404040202E6
:100180000202020203030303030301020408102016
:100190004080010204081020010204081020830F8F
:1001A00011241FBECFEFD8E0DEBFCDBF14E0A0E02A
:1001B000B1E0EEEBFDE202C005900D92A230B10776
:1001C000D9F724E0A2E0B4E001C01D92A93CB20737
:1001D000E1F710E0C0EDD0E004C02197FE010E94DD
:1001E000E514CF3CD107C9F70E9428070C94DD160F
:1001F0000C94000080912201909123010895AF9208
:10020000BF92CF92DF92EF92FF920F931F93CF9303
:10021000DF936C017B018B01040F151FEB015E0165
:10022000AE18BF08C017D10759F06991D601ED91FA
:10023000FC910190F081E02DC6010995892B79F799
:10024000C501DF91CF911F910F91FF90EF90DF904B
:10025000CF90BF90AF900895FC01538D448D252F12
:1002600030E0842F90E0821B930B541710F0CF9650
:10027000089501970895FC01918D828D981761F082
:10028000A28DAE0FBF2FB11D5D968C91928D9F5F99
:100290009F73928F90E008958FEF9FEF0895FC0178
:1002A000918D828D981731F0828DE80FF11D858D2B
:1002B00090E008958FEF9FEF08952FB7F894809105
:1002C000240490912504A0912604B09127042FBF07
:1002D0008093300490933104A0933204B09333049C
:1002E00088E294E00E944F0197FF26C02FB7F89450
:1002F0008091240490912504A0912604B0912704B4
:100300002FBF4091300450913104609132047091BC
:100310003304841B950BA60BB70B40912C04509112
:100320002D0460912E0470912F0484179507A60761
:10033000B707B0F28FEF9FEF0895CF92DF92EF9261
:10034000FF92CF930E945D01FC0197FD4EC08D325C
:10035000910521F0C0970A9708F040C0C12CD12C1C
:100360007601C0E0E130F105D1F0ED32F105D9F1CF
:10037000CF01C0970A9798F4AAE0B0E0A7019601D0
:100380000E94F8136F01FF0FEE08FF08C60ED71E7C
:10039000E81EF91E80E3C81AD108E108F10888E2D6
:1003A00094E00E943B010E945D01FC01C0970A9706
:1003B000C8F2E130F105B1F2CC2341F0F094E094C1
:1003C000D094C094C11CD11CE11CF11CC701B60122
:1003D000CF91FF90EF90DF90CF90089588E294E066
:1003E0000E943B01AFCFC1E0DACFC12CD12C760106
:1003F000EDCFFC01918D228D892F90E0805C9F4F85
:10040000821B91098F739927089588E294E00E94D6
:10041000F90121E0892B09F420E0822F089580E082
:1004200090E0892B29F00E94050281110C940000B4
:100430000895FC01A48DA80FB92FB11DA35ABF4F79
:100440002C91848D90E001968F739927848FA689D3
:10045000B7892C93A089B1898C91837080648C9327
:10046000938D848D981306C00288F389E02D8081D6
:100470008F7D80830895EF92FF920F931F93CF9308
:10048000DF93EC0181E0888F9B8D8C8D98131AC0CF
:10049000E889F989808185FF15C09FB7F894EE89B6
:1004A000FF896083E889F989808183708064808313
:1004B0009FBF81E090E0DF91CF911F910F91FF905E
:1004C000EF900895F62E0B8D10E00F5F1F4F0F7306
:1004D0001127E02E8C8D8E110CC00FB607FCFACFC1
:1004E000E889F989808185FFF5CFCE010E94190244
:1004F000F1CFEB8DEC0FFD2FF11DE35AFF4FF08292
:100500009FB7F8940B8FEA89FB8980818062CFCFF7
:10051000CF93DF93EC01888D8823B9F0AA89BB893A
:10052000E889F9898C9185FD03C0808186FD0DC025
:100530000FB607FCF7CF8C9185FFF2CF808185FF46
:10054000EDCFCE010E941902E9CFDF91CF9108953E
:100550003FB7F8948091030490910404A09105049E
:10056000B091060426B5A89B05C02F3F19F001964F
:10057000A11DB11D3FBFBA2FA92F982F8827BC01FD
:10058000CD01620F711D811D911D42E0660F771F25
:10059000881F991F4A95D1F708958F929F92AF9225
:1005A000BF92CF92DF92EF92FF926B017C010E948B
:1005B000A8024B015C01C114D104E104F104B9F0BB
:1005C0000E94A802681979098A099B09683E73404C
:1005D0008105910580F321E0C21AD108E108F108F4
:1005E00088EE880E83E0981EA11CB11CE4CFFF901A
:1005F000EF90DF90CF90BF90AF909F908F90089535
:1006000008958F36C9F46F3609F09CC04F3609F053
:100610009EC0809120049091210401969093210422
:100620008093200480912601909127010196909358
:100630002701809326010895893081F4693009F0FB
:1006400081C0493009F083C080911E0490911F043D
:10065000019690931F0480931E04E4CF8E3681F49C
:100660006E3609F06FC04E3609F071C080911C04DF
:1006700090911D04019690931D0480931C04D2CF89
:1006800081110EC061115EC0411161C080911A04D8
:1006900090911B04019690931B0480931A04C2CF7F
:1006A000853679F46536E9F5453609F050C0809114
:1006B00018049091190401969093190480931804DA
:1006C000B1CF813079F4613071F5413009F03FC02C
:1006D00080911604909117040196909317048093CB
:1006E0001604A0CF613061F4413051F480911404BC
:1006F000909115040196909315048093140492CF61
:10070000883089F4683019F5483009F08BCF809132
:100710001204909113040196909313048093120491
:1007200081CF613091F0683091F4483009F07ACF90
:10073000809110049091110401969093110480937C
:10074000100470CF613081F2EECF413079F2483041
:1007500009F068CF80910E0490910F040196909358
:100760000F0480930E045ECF882379F0813079F0F6
:10077000883079F0893079F0843679F0853679F0EF
:100780008E3679F08F3679F0089581E4089582E409
:10079000089583E4089587E408958CE408958FE430
:1007A000089580E5089582E508950E949D016115F0
:1007B0007105D9F3CB01089542E050E064E471E0A3
:1007C00088E294E00C94FF00CF93DF93FC0101904A
:1007D0000020E9F73197AF01481B590BBC0188E2B3
:1007E00094E00E94FF00EC010E94DC038C0F9D1F2F
:1007F000DF91CF9108959091070481E0911180E0FD
:100800008093070487E491E00C94E403CF93DF9393
:10081000FC01448155816081718188E294E00E94ED
:10082000FF00EC010E94DC038C0F9D1FDF91CF9134
:1008300008950F931F93CF93DF93EC0188819981E3
:10084000009759F02A813B812617370730F081E065
:10085000DF91CF911F910F9108958B016F5F7F4FB3
:100860000E941016009759F0998388831B830A838E
:100870002C813D81232B59F7FC011082E8CF80E0C9
:10088000E7CFEF92FF920F931F93CF93DF93611502
:10089000710541F480E0DF91CF911F910F91FF909E
:1008A000EF90089541155105B1F07B01EC010C81E9
:1008B0001D81040F151FB8010E941904882351F3EC
:1008C000288139818C819D81B701820F931F0E94FD
:1008D000D6161D830C8381E0DECFCF93DF93EC012E
:1008E00088819981009711F00E94871519821882DA
:1008F0001D821C821B821A82DF91CF910895EF9294
:10090000FF920F931F93CF93DF93CDB7DEB764971A
:100910000FB6F894DEBF0FBECDBF7C01CB01BA018C
:100920008E010F5F1F4F22E044E00E94B00FFC01D8
:1009300001900020E9F73197AF01481B590BBC012A
:10094000C7010E944104811103C0C7010E946D04C8
:10095000C70164960FB6F894DEBF0FBECDBFDF911E
:10096000CF911F910F91FF90EF900895EF92FF921A
:100970000F931F93CF93DF93CDB7DEB728970FB6B2
:10098000F894DEBF0FBECDBF7C01CB014AE08E01E3
:100990000F5F1F4FB8010E947210F80101900020F4
:1009A000E9F73197AF01401B510BB801C7010E9415
:1009B0004104811103C0C7010E946D04C70128963C
:1009C0000FB6F894DEBF0FBECDBFDF91CF911F9160
:1009D0000F91FF90EF9008950F931F93CF93DF93A4
:1009E00000D0CDB7DEB78C0169831A8241E050E0B8
:1009F000BE016F5F7F4F0E944104811103C0C80197
:100A00000E946D04C8010F900F90DF91CF911F914C
:100A10000F910895CF93DF93EC01FB01019000202B
:100A2000E9F73197AF01461B570B0E944104811132
:100A300003C0CE010E946D04CE01DF91CF910895D5
:100A4000EF92FF920F931F93CF93DF93EC011982E4
:100A500018821B821A821D821C828617970719F141
:100A6000FB010081118101151105E9F0E480F58099
:100A7000B7010E941904811109C0CE01DF91CF9105
:100A80001F910F91FF90EF900C946D04FD82EC820A
:100A9000B80188819981DF91CF911F910F91FF90CB
:100AA000EF900C94D616DF91CF911F910F91FF908C
:100AB000EF900895EF92FF920F931F93CF93DF93E0
:100AC000EC017B01198218821B821A821D821C8212
:100AD000FB0101900020E9F731978F01061B170BEE
:100AE000B8010E941904811109C0CE01DF91CF9194
:100AF0001F910F91FF90EF900C946D041D830C8358
:100B0000B70188819981DF91CF911F910F91FF905B
:100B1000EF900C94D616FC0180819181009711F022
:100B20000C94871508950F931F93CF93DF93CDB740
:100B3000DEB72C970FB6F894DEBF0FBECDBF009185
:100B40002201109123012091240130912501021BE3
:100B5000130B8F3641F46F3609F084C04F36A1F481
:100B600082E390E016C0893041F4693009F07AC020
:100B7000493051F488E190E00CC08E36D9F56E36DC
:100B800009F070C04E36B1F382E090E0483009F0D1
:100B90005CC0080F191F10932301009322016EE51A
:100BA00071E0CE0101960E945A05BE016F5F7F4F32
:100BB000CE0107960E942005B801CE0107960E943B
:100BC000B6046CE671E00E940A050E940604CE019C
:100BD00007960E948B05CE0101960E948B052C96EC
:100BE0000FB6F894DEBF0FBECDBFDF91CF911F913E
:100BF0000F910895811107C0611134C04111C4CF14
:100C000082E190E0C6CF853641F4653609F5453678
:100C100009F0BACF8AE090E0BCCF813041F4613076
:100C2000C9F4413009F0B0CF80E190E0B2CF61303B
:100C300011F44130A1F0883069F4683009F0A4CF94
:100C40008CE090E0483009F4A4CF90E080E0A1CFA0
:100C5000613059F0683009F097CF4830B1F788E03B
:100C600090E097CF613029F3F5CF4130C1F38CCFBD
:100C70001F920F920FB60F9211242F933F934F9311
:100C80005F936F937F938F939F93AF93BF93EF93F4
:100C9000FF9388E294E00E941902FF91EF91BF91C7
:100CA000AF919F918F917F916F915F914F913F9104
:100CB0002F910F900FBE0F901F9018951F920F92BB
:100CC0000FB60F9211242F938F939F93EF93FF935F
:100CD000E0913804F09139048081E0913E04F09174
:100CE0003F0482FD1BC09081809141048F5F8F7310
:100CF00020914204821741F0E0914104F0E0E85D68
:100D0000FB4F958F80934104FF91EF919F918F91BD
:100D10002F910F900FBE0F901F9018958081F4CFE8
:100D20001F920F920FB60F9211242F933F938F9320
:100D30009F93AF93BF938091240490912504A09139
:100D40002604B09127043091020423E0230F2D37AD
:100D500058F50196A11DB11D20930204809324042F
:100D600090932504A0932604B09327048091030454
:100D700090910404A0910504B09106040196A11D70
:100D8000B11D8093030490930404A0930504B093D1
:100D90000604BF91AF919F918F913F912F910F903A
:100DA0000FBE0F901F90189526E8230F0296A11DE5
:100DB000B11DD2CF1F920F920FB60F9211242F9315
:100DC0003F934F935F936F937F938F939F93AF93D3
:100DD000BF93EF93FF93E0910201F0910301099516
:100DE000FF91EF91BF91AF919F918F917F916F9103
:100DF0005F914F913F912F910F900FBE0F901F90D9
:100E000018951F920F920FB60F9211242F933F93B4
:100E10004F935F936F937F938F939F93AF93BF9302
:100E2000EF93FF93E0910001F09101010995FF918B
:100E3000EF91BF91AF919F918F917F916F915F9152
:100E40004F913F912F910F900FBE0F901F901895CB
:100E5000CF93DF93CDB7DEB72D970FB6F894DEBFF3
:100E60000FBECDBF789484B5826084BD84B58160A7
:100E700084BD85B5826085BD85B5816085BD809165
:100E80006E00816080936E001092810080918100DD
:100E900082608093810080918100816080938100D5
:100EA000809180008160809380008091B100846097
:100EB0008093B1008091B00081608093B0008091F8
:100EC0007A00846080937A0080917A0082608093B7
:100ED0007A0080917A00816080937A0080917A0014
:100EE000806880937A001092C100E0913804F091FC
:100EF000390482E08083E0913404F091350410825B
:100F0000E0913604F09137048FEC80831092400416
:100F1000E0913C04F0913D0486E08083E0913A0446
:100F2000F0913B04808180618083E0913A04F091EC
:100F30003B04808188608083E0913A04F0913B0417
:100F4000808180688083E0913A04F0913B04808145
:100F50008F7D8083E7E9F1E02491E3E8F1E084917B
:100F6000882399F090E0880F991FFC01E459FE4F07
:100F7000A591B491FC01EE59FE4F859194918FB7E4
:100F8000F894EC91E22BEC938FBFECE8F1E0249124
:100F9000E8E7F1E084918823C9F090E0880F991F79
:100FA000FC01E459FE4F45915491FC01EE59FE4F6E
:100FB000A591B4919FB7F894FA013081822F809562
:100FC00083238083EC91E22BEC939FBF8BEF93E024
:100FD0009093010180930001809169008C7F816072
:100FE00080936900E89A89E791E00E94E403009108
:100FF0002201109123016AE971E0CE0107960E9457
:101000005A05BE01695F7F4FCE0101960E942005FF
:10101000B801CE0101960E94B6046BEA71E00E940D
:101020000A050E940604CE0101960E948B05CE019E
:1010300007960E948B05009124011091250164EB15
:1010400071E0CE0107960E945A05BE01695F7F4F8D
:10105000CE0101960E942005B801CE0101960E94A2
:10106000B6040E940604CE0101960E948B05CE01B3
:1010700007960E948B0586EC91E00E94E4038AE0CB
:10108000482E512C612C712C90E0292E90E0392EA5
:101090008AEF91E00E94E40389E292E00E94E40377
:1010A00081E492E00E94E4038BE692E00E94E40374
:1010B0000E94DC030E94DC030E94D503909323046A
:1010C000809322048130910509F0A9C287E892E05B
:1010D0000E94E40387E992E00E94E4030E94DC039B
:1010E0000E94DC030E94D503909323048093220482
:1010F0008130910509F084C287EA92E00E94E403FE
:101100002FB7F894609124047091250480912604EF
:10111000909127042FBF611571058105910511F08C
:101120000E9469100E941A10A30192010E94D91313
:101130007B01F2E0EF0EF11C0E941A10A301920154
:101140000E94D9136B0122E0C20ED11C0E941A101A
:10115000A30192010E94D9135B01E2E0AE0EB11C23
:1011600010E000E00A151B050CF09BC080EE92E039
:101170000E94E403E0910804F0910904E85EFE4F48
:1011800080810E94B403982EE0910A04F0910B0430
:10119000E25FFE4F80810E94B403882EE0910C0430
:1011A000F0910D04EC5FFE4F80810E94B4038D87A7
:1011B00060EF72E0CE0107960E945A05BE01695F9A
:1011C0007F4FCE0101960E9420056D85CE010196CC
:1011D0000E94EC0465EF72E00E940A05682D0E94EF
:1011E000EC0465EF72E00E940A05692D0E94EC0490
:1011F00069EF72E00E940A050E940604CE01019682
:101200000E948B05CE0107960E948B058CEF92E021
:101210000E94E40368EC70E080E090E00E94CD0260
:101220000E949D01672B11F00E94FB03809107042F
:101230000F5F1F4F811102C010E000E040910C04CD
:1012400050910D044F5F5F4F50930D0440930C0479
:1012500020910A0430910B042F5F3F4F30930B0411
:1012600020930A04809108049091090401969093B8
:101270000904809308044A30510521F410920D04AA
:1012800010920C042A30310521F410920B041092B4
:101290000A040A9709F066CF109209041092080414
:1012A00061CF8CE293E00E94E4031092070410E007
:1012B00000E00C151D050CF08AC080EE92E00E9443
:1012C000E403E0910804F0910904E85EFE4F808198
:1012D0000E94B403B82EE0910A04F0910B04E25F7F
:1012E000FE4F80810E94B403A82EE0910C04F0917F
:1012F0000D04EC5FFE4F80810E94B403982E60EFD6
:1013000072E0CE0107960E945A05BE01695F7F4FC9
:10131000CE0101960E942005692DCE0101960E9402
:10132000EC0465EF72E00E940A056A2D0E94EC044D
:1013300065EF72E00E940A056B2D0E94EC0469EFD4
:1013400072E00E940A050E940604CE0101960E94E6
:101350008B05CE0107960E948B058CEF92E00E94D0
:10136000E40368EC70E080E090E00E94CD020E940F
:101370009D01672B11F00E94FB03809107040F5F12
:101380001F4F811102C010E000E020910C04309149
:101390000D042F5F3F4F30930D0420930C04809178
:1013A0000A0490910B04019690930B0480930A0415
:1013B0002A30310521F410920D0410920C040A9782
:1013C00009F077CF10920B0410920A0472CF85E4D3
:1013D00093E00E94E4031092070410E000E00E1571
:1013E0001F050CF07AC080EE92E00E94E403E091C9
:1013F0000804F0910904E85EFE4F80810E94B40366
:10140000D82EE0910A04F0910B04E25FFE4F808138
:101410000E94B403C82EE0910C04F0910D04EC5F1F
:10142000FE4F80810E94B403B82E60EF72E0CE01BF
:1014300007960E945A05BE01695F7F4FCE01019653
:101440000E9420056B2DCE0101960E94EC0465EFF1
:1014500072E00E940A056C2D0E94EC0465EF72E0B8
:101460000E940A056D2D0E94EC0469EF72E00E9453
:101470000A050E940604CE0101960E948B05CE014A
:1014800007960E948B058CEF92E00E94E40368ECC3
:1014900070E080E090E00E94CD020E949D01672BE9
:1014A00011F00E94FB03809107040F5F1F4F811111
:1014B00002C010E000E080910C0490910D040196B0
:1014C0008A30910529F410920D0410920C0487CFF4
:1014D00090930D0480930C0482CF8FE593E00E94DB
:1014E000E40387E793E00E94E40380EE92E00E9429
:1014F000E403E0910804F0910904E85EFE4F808166
:101500000E94B403182FE0910A04F0910B04E25FEB
:10151000FE4F80810E94B403082FE0910C04F091EB
:101520000D04EC5FFE4F80810E94B403F82E60EF43
:1015300072E0CE0107960E945A05BE01695F7F4F97
:10154000CE0101960E9420056F2DCE0101960E94CA
:10155000EC0465EF72E00E940A05602F0E94EC0423
:1015600065EF72E00E940A05612F0E94EC0469EFAA
:1015700072E00E940A050E940604CE0101960E94B4
:101580008B05CE0107960E948B058CEF92E00E949E
:10159000E4038091080490910904885E9E4FA09115
:1015A0000A04B0910B04A25FBE4FE0910C04F091CD
:1015B0000D049F012C5F3E4FFC0140816C91F901AD
:1015C00080810E9493058091080490910904885EAF
:1015D0009E4FA0910A04B0910B04A25FBE4FE09110
:1015E0000C04F0910D049F012C5F3E4FFC014081E3
:1015F0006C91F90180810E9401031092070466CD6D
:10160000029709F063CD2114310409F441CD0E9401
:101610000502882309F43CCD0E94000039CD8230B8
:10162000910509F018C18EE893E00E94E4030E943E
:10163000D5039093230480932204D12CC12C809154
:10164000220490912304C816D906ECF62FB7F8941B
:1016500060912404709125048091260490912704C0
:101660002FBF611571058105910511F00E94691068
:101670000E941A10A30192010E94D9136F5F7F4F3D
:101680008F4F9F4F7B010E941A10A30192010E946D
:10169000D9138B019C010F5F1F4F2F4F3F4F0E94AB
:1016A0001A10A30192010E94D9136F5F7F4F8F4FD1
:1016B0009F4F80910C0490910D0430E020E02E1596
:1016C0003F051CF190930D0480930C0480910A0453
:1016D00090910B0430E020E020173107FCF090934C
:1016E0000B0480930A04809108049091090430E06F
:1016F00020E026173707DCF401968A30910511F4B3
:1017000090E080E02F5F3F4FF4CF01968A30910543
:1017100011F490E080E02F5F3F4FD1CF01968A30E7
:10172000910511F490E080E02F5F3F4FD5CF90936B
:1017300009048093080487E793E00E94E40380EEA5
:1017400092E00E94E403E0910804F0910904E85E4D
:10175000FE4F80810E94B403182FE0910A04F0919B
:101760000B04E25FFE4F80810E94B403082FE091DA
:101770000C04F0910D04EC5FFE4F80810E94B403D5
:10178000F82E60EF72E0CE0107960E945A05BE0166
:10179000695F7F4FCE0101960E9420056F2DCE011B
:1017A00001960E94EC0465EF72E00E940A05602F2A
:1017B0000E94EC0465EF72E00E940A05612F0E940E
:1017C000EC0469EF72E00E940A050E940604CE0153
:1017D00001960E948B05CE0107960E948B058CEF27
:1017E00092E00E94E4038091080490910904885ECD
:1017F0009E4FA0910A04B0910B04A25FBE4FE091EE
:101800000C04F0910D049F012C5F3E4FFC014081C0
:101810006C91F90180810E94930580910804909158
:101820000904885E9E4FA0910A04B0910B04A25F48
:10183000BE4FE0910C04F0910D049F012C5F3E4FD0
:10184000FC0140816C91F90180810E940103FFEF4E
:10185000CF1ADF0AF4CE039709F0D5CE0091260106
:101860001091270168EB73E0CE0107960E945A059C
:10187000BE01695F7F4FCE0101960E942005B8012D
:10188000CE0101960E94B60466EC73E00E940A0540
:101890000E940604CE0101960E948B05CE01079698
:1018A0000E948B056091200470912104072E000C8A
:1018B000880B990B0E94E0126B017C01609126015C
:1018C00070912701072E000C880B990B0E94E012E3
:1018D0009B01AC01C701B6010E94731420E030E007
:1018E00048EC52E40E941B136B017C016DEC73E029
:1018F000CE0107960E945A05BE01695F7F4FCE0157
:1019000001960E942005B701A601CE0101960E9412
:101910007F0463ED73E00E940A050E940604CE0175
:1019200001960E948B05CE0107960E948B0560915F
:101930001E0470911F04072E000C880B990B0E9447
:10194000E0126B017C016091260170912701072E46
:10195000000C880B990B0E94E0129B01AC01C7019F
:10196000B6010E94731420E030E048EC52E40E947B
:101970001B136B017C0165ED73E0CE0107960E949D
:101980005A05BE01695F7F4FCE0101960E94200576
:10199000B701A601CE0101960E947F0463ED73E0BA
:1019A0000E940A050E940604CE0101960E948B0542
:1019B000CE0107960E948B0560911C0470911D0456
:1019C000072E000C880B990B0E94E0126B017C0122
:1019D0006091260170912701072E000C880B990B4E
:1019E0000E94E0129B01AC01C701B6010E94731472
:1019F00020E030E048EC52E40E941B136B017C01B4
:101A00006BED73E0CE0107960E945A05BE01695F37
:101A10007F4FCE0101960E942005B701A601CE019D
:101A200001960E947F0463ED73E00E940A050E9404
:101A30000604CE0101960E948B05CE0107960E94F6
:101A40008B0560911A0470911B04072E000C880B03
:101A5000990B0E94E0126B017C016091260170914C
:101A60002701072E000C880B990B0E94E0129B01A6
:101A7000AC01C701B6010E94731420E030E048ECCD
:101A800052E40E941B136B017C0161EE73E0CE01F6
:101A900007960E945A05BE01695F7F4FCE010196ED
:101AA0000E942005B701A601CE0101960E947F0485
:101AB00063ED73E00E940A050E940604CE010196C0
:101AC0000E948B05CE0107960E948B056091180439
:101AD00070911904072E000C880B990B0E94E012DC
:101AE0006B017C016091260170912701072E000C8B
:101AF000880B990B0E94E0129B01AC01C701B60153
:101B00000E94731420E030E048EC52E40E941B1362
:101B10006B017C0167EE73E0CE0107960E945A05C7
:101B2000BE01695F7F4FCE0101960E942005B7017B
:101B3000A601CE0101960E947F0463ED73E00E942E
:101B40000A050E940604CE0101960E948B05CE0173
:101B500007960E948B056091160470911704072E5A
:101B6000000C880B990B0E94E0126B017C016091C4
:101B7000260170912701072E000C880B990B0E94FB
:101B8000E0129B01AC01C701B6010E94731420E072
:101B900030E048EC52E40E941B136B017C016DEEB7
:101BA00073E0CE0107960E945A05BE01695F7F4F20
:101BB000CE0101960E942005B701A601CE01019633
:101BC0000E947F0463ED73E00E940A050E940604F0
:101BD000CE0101960E948B05CE0107960E948B05CF
:101BE0006091140470911504072E000C880B990B5A
:101BF0000E94E0126B017C01609126017091270127
:101C0000072E000C880B990B0E94E0129B01AC017F
:101C1000C701B6010E94731420E030E048EC52E4A2
:101C20000E941B136B017C016EEE73E0CE010796E0
:101C30000E945A05BE01695F7F4FCE0101960E9446
:101C40002005B701A601CE0101960E947F0463ED35
:101C500073E00E940A050E940604CE0101960E94CC
:101C60008B05CE0107960E948B056091120470913E
:101C70001304072E000C880B990B0E94E0126B01D5
:101C80007C016091260170912701072E000C880BC2
:101C9000990B0E94E0129B01AC01C701B6010E94A2
:101CA000731420E030E048EC52E40E941B136B01F7
:101CB0007C0163EF73E0CE0107960E945A05BE01D6
:101CC000695F7F4FCE0101960E942005B701A601F2
:101CD000CE0101960E947F0463ED73E00E940A0525
:101CE0000E940604CE0101960E948B05CE01079644
:101CF0000E948B056091100470911104072E000C56
:101D0000880B990B0E94E0126B017C016091260107
:101D100070912701072E000C880B990B0E94E0128E
:101D20009B01AC01C701B6010E94731420E030E0B2
:101D300048EC52E40E941B136B017C0164EF73E0DA
:101D4000CE0107960E945A05BE01695F7F4FCE0102
:101D500001960E942005B701A601CE0101960E94BE
:101D60007F0463ED73E00E940A050E940604CE0121
:101D700001960E948B05CE0107960E948B0560910B
:101D80000E0470910F04072E000C880B990B0E9413
:101D9000E0126B017C016091260170912701072EF2
:101DA000000C880B990B0E94E0129B01AC01C7014B
:101DB000B6010E94731420E030E048EC52E40E9427
:101DC0001B136B017C0165EF73E0CE0107960E9447
:101DD0005A05BE01695F7F4FCE0101960E94200522
:101DE000B701A601CE0101960E947F0463ED73E066
:101DF0000E940A050E940604CE0101960E948B05EE
:101E0000CE0107960E948B050091260110912701B3
:101E1000809120049091210420911E0430911F0490
:101E2000820F931F20911C0430911D04820F931F79
:101E300020911A0430911B04820F931F20911804E3
:101E400030911904820F931F2091160430911704CA
:101E5000820F931F2091140430911504820F931F59
:101E60002091120430911304820F931F20911004CB
:101E700030911104820F931F20910E0430910F04B2
:101E8000820F931FB801681B790B072E000C880B7B
:101E9000990B0E94E0126B017C01B801110F880BB5
:101EA000990B0E94E0129B01AC01C701B6010E9490
:101EB000731420E030E048EC52E40E941B136B01E5
:101EC0007C0169EF73E0CE0107960E945A05BE01BE
:101ED000695F7F4FCE0101960E942005B701A601E0
:101EE000CE0101960E947F0463ED73E00E940A0513
:101EF0000E940604CE0101960E948B05CE01079632
:101F00000E948B0580CBE8E2F4E01382128288EE17
:101F100093E0A0E0B0E084839583A683B78386E353
:101F200091E09183808385EC90E09587848784ECB1
:101F300090E09787868780EC90E0918B808B81EC96
:101F400090E0938B828B82EC90E0958B848B86EC77
:101F500090E0978B868B118E128E138E148E0895BF
:101F6000EF920F931F93CF93DF93E80134E047FD87
:101F700034E1042E000C550B57FF03C051954195D9
:101F80005109E32E022F242FAE010E949710CE019B
:101F9000DF91CF911F910F91EF9008958F929F92B3
:101FA000AF92BF92CF92DF92EF92FF92CF93DF93E7
:101FB000EC01688179818A819B81611571058105B8
:101FC000910521F464E279ED8BE597E02DE133EFA3
:101FD00041E050E00E94D91349015A019B01AC0134
:101FE000A7EAB1E40E94F8136B017C01ACEEB4EFF8
:101FF000A50194010E940614C60ED71EE81EF91E04
:10200000F7FE06C081E0C81AD108E10880E8F80AA6
:10201000C882D982EA82FB82C701B6019F77DF912D
:10202000CF91FF90EF90DF90CF90BF90AF909F90B7
:102030008F9008958F929F92AF92BF92CF92DF922E
:10204000EF92FF92609128017091290180912A01FD
:1020500090912B01611571058105910521F464E2D0
:1020600079ED8BE597E02DE133EF41E050E00E9400
:10207000D91349015A019B01AC01A7EAB1E40E94BE
:10208000F8136B017C01ACEEB4EFA50194010E9442
:102090000614C60ED71EE81EF91EF7FE06C081E024
:1020A000C81AD108E10880E8F80AC0922801D09245
:1020B0002901E0922A01F0922B01C701B6019F7716
:1020C000FF90EF90DF90CF90BF90AF909F908F9058
:1020D0000895609328017093290180932A019093B9
:1020E0002B010895BB274A3031F4992322F4BDE235
:1020F000909581959F4F0C947E10BB27FB0155272F
:10210000AA27880F991FAA1FA41710F0A41B839554
:102110005051B9F7A05DAA3308F0A95DA1930097CB
:1021200079F7B111B1931192CB010C94CE12A9E0C1
:10213000B0E0EDE9F0E10C9411146A01F22EB02E3A
:10214000102FFBE3AF2EA01608F41BE31F5F012F37
:1021500027E0AE014F5F5F4F0E94F611BC018981FD
:10216000982F9970913009F43FC09BE2E1FC04C0C4
:102170009E2D9170E0FC3AC05E2D5071E82FE87002
:1021800083FF46C084E0911101C083E0EF2DE81B7E
:102190008F1508F0E0E0D6018E2F20E2552351F193
:1021A000992329F0D6019C93C60101966C019601F2
:1021B0002D5F3F4FE2FE24C08EE4D6018C9391E464
:1021C00011969C93119712968C93D9018E2F90E2C1
:1021D00081111BC0E20FF32FF11D10828EEF9FEFD4
:1021E0002996ECE00C942D149DE2C6CF90E2C4CF6A
:1021F0002D9381508111FCCFCE0ED11CE0E0D0CFC9
:102200008EE6D6018C9391E6DBCF9D938150E0CF93
:10221000482F447082FF3DC084E0911101C083E0EB
:102220008F1510F4EF2DE81BD6018E2F20E25523D9
:1022300009F1992329F0D6019C93C60101966C01FE
:1022400096012D5F3F4FE2FE1BC089E4D6018C93BF
:102250008EE411968C93119786E412968C93D90193
:102260008E2F90E2882309F4B5CF9D938150FACF49
:102270002D9381508111FCCFCE0ED11CE0E0D9CF3F
:1022800089E6D6018C938EE611968C93119786E69B
:10229000E4CF9B0177FF02C030E020E0A1E0B0E096
:1022A000911102C0B0E0A0E0F9013196AE0FBF1F5E
:1022B0008B2C912CBB2009F461C05401EFEFAE1AB6
:1022C000BE0AAA0DBB1DFA161B0619F014F04F2DFD
:1022D0004A1B511188C0E3FC59C07601A42FB0E21B
:1022E000A1114FC0C40ED11C992309F45BC040E07A
:1022F000D6011196F60190836D01552309F448C06B
:10230000012F060F9A81582F507184FF03C091331B
:1023100009F4015010160CF047C0093008F008E02D
:10232000EEE2FE2E5B01A01AB10885019194819422
:1023300091082F3F320729F4D601FC92F60131961D
:102340006F016217730794F1021713077CF5DB0125
:10235000A21BB30BAA24A394B12CAC0EBD1EAA0DD4
:10236000BB1D11968C9121503109D601119628156B
:102370003905F4F0F60180836D01DBCFB12CA12C7F
:10238000A0CFF701B1937F01A150AACF9111B0CF97
:10239000D601942F50E302C05D9391509111FCCF70
:1023A000C40ED11C40E0ACCF01E0BACF80E3DBCF5C
:1023B0006217730731F4963388F4953311F455237B
:1023C00069F0F6018083FD01842F90E2811108C03D
:1023D000A40FB11D1C9290E080E002CF81E3F1CF09
:1023E00091938150F3CF911183CF8ACF283008F099
:1023F00027E03327DA01990F311D87FD91600096A0
:102400006105710539F432602E5F3D9330E32A9502
:10241000E1F708959F3F30F080387105610509F0BC
:102420003C5F3C5F3D93913008F08068911DDF93E5
:10243000CF931F930F93FF92EF92192F987F96954A
:10244000E92F96959695E90FFF27EE53FF4F9927B1
:102450003327EE24FF24A701E70105900894079491
:1024600028F4360FE71EF81E491F511D660F771F0F
:10247000881F991F0694A1F70590079428F4E70E8A
:10248000F81E491F561FC11D770F881F991F661F11
:102490000694A1F70590079428F4F80E491F561FDB
:1024A000C71FD11D880F991F661F771F0694A1F7BC
:1024B0000590079420F4490F561FC71FD81F990F86
:1024C000661F771F881F0694A9F7849110951770CF
:1024D00041F0D695C79557954795F794E7941A9587
:1024E000C1F7E8E6F0E06894159015913591659193
:1024F000959105907FE27395E118F10A430B560B15
:10250000C90BD009C0F7E10CF11E431F561FC91FAC
:10251000D01D7EF4703311F48A95E6CFE894015013
:1025200030F0080F0AF40027021708F4202F239533
:10253000022F7A3328F079E37D932A95E9F710C0CA
:102540007D932A9589F60694979567953795179503
:102550001794E118F10A430B560BC90BD00998F0F8
:1025600023957E9173957A3308F070E37C93201362
:10257000B8F77E9170617D9330F0839571E37D9320
:1025800070E32A95E1F71124EF90FF900F911F91CE
:10259000CF91DF91992787FD90950895DC01FC018B
:1025A000672F71917723E1F7329704C07C916D9387
:1025B00070836291AE17BF07C8F30895E89409C00D
:1025C00097FB3EF490958095709561957F4F8F4F66
:1025D0009F4F9923A9F0F92F96E9BB279395F6957C
:1025E000879577956795B795F111F8CFFAF4BB0FFA
:1025F00011F460FF1BC06F5F7F4F8F4F9F4F16C05E
:10260000882311F096E911C0772321F09EE8872FE7
:10261000762F05C0662371F096E8862F70E060E0A3
:102620002AF09A95660F771F881FDAF7880F96951C
:10263000879597F908950E942E130C949F130E947A
:10264000911338F00E94981320F0952311F00C9408
:1026500088130C948E1311240C94D3130E94B0137E
:1026600070F3959FC1F3950F50E0551F629FF001E5
:10267000729FBB27F00DB11D639FAA27F00DB11DFE
:10268000AA1F649F6627B00DA11D661F829F222787
:10269000B00DA11D621F739FB00DA11D621F839F0E
:1026A000A00D611D221F749F3327A00D611D231FE4
:1026B000849F600D211D822F762F6A2F11249F5732
:1026C00050409AF0F1F088234AF0EE0FFF1FBB1F35
:1026D000661F771F881F91505040A9F79E3F5105F4
:1026E00080F00C9488130C94D3135F3FE4F3983E6E
:1026F000D4F3869577956795B795F795E7959F5F9E
:10270000C1F7FE2B880F911D9695879597F908952F
:1027100097F99F6780E870E060E008959FEF80EC94
:10272000089500240A941616170618060906089537
:1027300000240A9412161306140605060895092E9D
:102740000394000C11F4882352F0BB0F40F4BF2B0C
:1027500011F460FF04C06F5F7F4F8F4F9F4F08954C
:1027600057FD9058440F551F59F05F3F71F0479542
:10277000880F97FB991F61F09F3F79F08795089527
:10278000121613061406551FF2CF4695F1DF08C046
:10279000161617061806991FF1CF86957105610563
:1027A00008940895E894BB2766277727CB0197F90B
:1027B0000895052E97FB1EF400940E94F01357FD18
:1027C00007D00E94421407FC03D04EF40C94F0137F
:1027D00050954095309521953F4F4F4F5F4F08954D
:1027E00090958095709561957F4F8F4F9F4F08957D
:1027F0000E946414A59F900DB49F900DA49F800D1E
:10280000911D11240895B7FF0C94F8130E94F8133A
:10281000821B930B08952F923F924F925F926F927B
:102820007F928F929F92AF92BF92CF92DF92EF9260
:10283000FF920F931F93CF93DF93CDB7DEB7CA1BE1
:10284000DB0B0FB6F894DEBF0FBECDBF09942A880C
:10285000398848885F846E847D848C849B84AA84B4
:10286000B984C884DF80EE80FD800C811B81AA8141
:10287000B981CE0FD11D0FB6F894DEBF0FBECDBF0C
:10288000ED010895A1E21A2EAA1BBB1BFD010DC08C
:10289000AA1FBB1FEE1FFF1FA217B307E407F50710
:1028A00020F0A21BB30BE40BF50B661F771F881FEC
:1028B000991F1A9469F760957095809590959B0182
:1028C000AC01BD01CF010895A29FB001B39FC0012B
:1028D000A39F700D811D1124911DB29F700D811D4C
:1028E0001124911D08950E9487140C949F130E9437
:1028F000981358F00E94911340F029F45F3F29F09B
:102900000C94881351110C94D3130C948E130E94C1
:10291000B01368F39923B1F3552391F3951B550B2D
:10292000BB27AA2762177307840738F09F5F5F4FA2
:10293000220F331F441FAA1FA9F335D00E2E3AF0E1
:10294000E0E832D091505040E695001CCAF72BD0F9
:10295000FE2F29D0660F771F881FBB1F261737074A
:102960004807AB07B0E809F0BB0B802DBF01FF277C
:1029700093585F4F3AF09E3F510578F00C948813BE
:102980000C94D3135F3FE4F3983ED4F38695779588
:102990006795B795F7959F5FC9F7880F911D969535
:1029A000879597F90895E1E0660F771F881FBB1F91
:1029B000621773078407BA0720F0621B730B840B3E
:1029C000BA0BEE1F88F7E0950895EE0FFF1F0590F4
:1029D000F491E02D09940F931F93CF93DF938230EE
:1029E000910510F482E090E0E091C704F091C804F2
:1029F00030E020E0B0E0A0E0309799F421153105F7
:102A000009F44AC0281B390B24303105D8F58A81D6
:102A10009B816115710589F1FB0193838283FE011E
:102A200011C0408151810281138148175907E0F09C
:102A30004817590799F4109761F012960C93129762
:102A400013961C933296CF01DF91CF911F910F9176
:102A500008950093C7041093C804F4CF21153105DD
:102A600051F04217530738F0A901DB019A01BD016B
:102A7000DF01F801C1CFEF01F9CF9093C804809333
:102A8000C704CDCFFE01E20FF31F81939193225033
:102A9000310939832883D7CF2091C5043091C604EA
:102AA000232B41F420912E0130912F013093C60445
:102AB0002093C50420912C0130912D012115310561
:102AC00041F42DB73EB74091300150913101241BA4
:102AD000350BE091C504F091C604E217F307A0F4AA
:102AE0002E1B3F0B2817390778F0AC014E5F5F4F64
:102AF0002417350748F04E0F5F1F5093C6044093CC
:102B0000C504819391939FCFF0E0E0E09CCFCF93F9
:102B1000DF930097E9F0FC01329713821282A091B3
:102B2000C704B091C804ED0130E020E01097A1F493
:102B300020813181820F931F2091C5043091C604FA
:102B40002817390709F061C0F093C604E093C50463
:102B5000DF91CF910895EA01CE17DF07E8F54A81AA
:102B60005B819E0141155105B1F7E901FB83EA83C1
:102B700049915991C40FD51FEC17FD0761F480816D
:102B800091810296840F951FE90199838883828140
:102B900093819B838A83F0E0E0E012968D919C9173
:102BA00013970097B9F52D913C911197CD0102969D
:102BB000820F931F2091C5043091C604281739074E
:102BC00039F6309751F51092C8041092C704B093AB
:102BD000C604A093C504BCCFD383C2834081518176
:102BE000840F951FC817D90761F44E5F5F4F888126
:102BF0009981480F591F518340838A819B81938318
:102C000082832115310509F0B0CFF093C804E09319
:102C1000C7049ECFFD01DC01C0CF13821282D7CF43
:102C2000B0E0A0E0E6E1F6E10C940D148C01009711
:102C300051F4CB010E94EB148C01C801CDB7DEB773
:102C4000E0E10C942914FC01E60FF71F9C012250CF
:102C50003109E217F30708F49DC0D901CD91DC9149
:102C60001197C617D70798F0C530D10530F3CE01BC
:102C700004978617970708F3C61BD70B2297C193B3
:102C8000D1936D937C93CF010E948715D6CF5B01C2
:102C9000AC1ABD0A4C018C0E9D1EA091C704B091C8
:102CA000C804512C412CF12CE12C109731F5809166
:102CB000C5049091C6048815990509F05CC04616B4
:102CC000570608F058C080912C0190912D01009773
:102CD00041F48DB79EB74091300150913101841B72
:102CE000950BE817F90708F055C0F093C604E09378
:102CF000C504F90171836083A0CF8D919C911197D8
:102D000012966C90129713967C901397A815B9059C
:102D100059F56C0142E0C40ED11CCA14DB0420F149
:102D2000AC014A195B09DA011296159780F06282AC
:102D3000738251834083D9016D937C93E114F10434
:102D400071F0D7011396FC93EE93129776CF2296EB
:102D50008C0F9D1FF90191838083F301EFCFF093D6
:102D6000C804E093C70469CF4816590608F42C013B
:102D70007D01D3019ACFCB010E94EB147C01009717
:102D800049F0AE01B8010E94CD16C8010E94871516
:102D9000870153CF10E000E050CFFB01DC0102C0FF
:102DA00001900D9241505040D8F70895FB01DC018D
:0E2DB00001900D920020E1F70895F894FFCFF6
:102DBE00000300036F08016E0000096465646F086C
:102DCE000801016E000965646F080808016E0009AC
:102DDE006565140001000000010000000000C90438
:102DEE008000000000003B02FF002C018802F90168
:102DFE003B014F010D0A00576865656C2069732011
:102E0E00676F696E6720746F2073746F7000596FEF
:102E1E0075206E6F77206861766520006372656439
:102E2E00697473206C6566740057656C636F6D65AD
:102E3E0020746F20746865206F6E652061726D65F9
:102E4E00642062616E6469742100596F7520737419
:102E5E0061727420776974683A2000206372656429
:102E6E0069742E00437265646974207065722073F4
:102E7E0070696E3A20005F5F5F5F5F5F5F5F5F5FED
:102E8E005F5F5F5F5F5F5F5F5F5F5F5F5F5F5F5F44
:102E9E005F5F5F5F5F5F5F5F5F5F5F5F5F5F5F5F34
:102EAE005F5F5F5F5F5F5F0A0A00456E7465722049
:102EBE00746865206E756D62657220636F727265DF
:102ECE0073706F6E64696E6720746F20796F7572A0
:102EDE002063686F6963652E0050726573733A20C4
:102EEE0031202D204D616E75616C20706C61792ED4
:102EFE000050726573733A2032202D205370696E24
:102F0E002061206365727461696E20616D6F756EEC
:102F1E0074206F662074696D652E00507265737330
:102F2E003A2033202D2053686F77207374617469B3
:102F3E0073746963732E0050726573733A20312077
:102F4E002D205370696E0050726573733A203220D3
:102F5E002D20457869740050726573732061206E60
:102F6E00756D62657220616E642074686520776885
:102F7E0065656C2077696C6C2073746F7020616668
:102F8E00746572206120666577207370696E7300B8
:102F9E0009095F5F5F5F5F5F5F5F5F5F5F5F5F003E
:102FAE0009097C2000207C2000207C000909E28099
:102FBE00BEE280BEE280BEE280BEE280BEE280BEA5
:102FCE00E280BEE280BEE280BEE280BEE280BEE271
:102FDE0080BEE280BEE280BEE280BE0052696768BB
:102FEE007420776865656C206861732073746F70E8
:102FFE007065642E0043656E746572207768656532
:10300E006C206861732073746F707065642E004C51
:10301E0065667420776865656C20686173207374CB
:10302E006F707065642E00596F75722066696E61DF
:10303E006C20726573756C742069733A200050723F
:10304E006573733A20746865206E756D62657220C3
:10305E006F662074696D657320796F752077616E68
:10306E006E61207370696E00596F75207370696E92
:10307E006E65643A20002074696D65730052525279
:10308E003A200025004747473A20005050503A203A
:10309E00004141413A20004F4F4F3A2000424242F8
:1030AE003A20004343433A20006E6F2077696E3A10
:0230BE002000F0
:107E0000112484B714BE81FFF0D085E080938100F7
:107E100082E08093C00088E18093C10086E0809377
:107E2000C20080E18093C4008EE0C9D0259A86E02C
:107E300020E33CEF91E0309385002093840096BBD3
:107E4000B09BFECF1D9AA8958150A9F7CC24DD24C4
:107E500088248394B5E0AB2EA1E19A2EF3E0BF2EE7
:107E6000A2D0813461F49FD0082FAFD0023811F036
:107E7000013811F484E001C083E08DD089C08234E0
:107E800011F484E103C0853419F485E0A6D080C0E4
:107E9000853579F488D0E82EFF2485D0082F10E0AE
:107EA000102F00270E291F29000F111F8ED06801E7
:107EB0006FC0863521F484E090D080E0DECF843638
:107EC00009F040C070D06FD0082F6DD080E0C81688
:107ED00080E7D80618F4F601B7BEE895C0E0D1E017
:107EE00062D089930C17E1F7F0E0CF16F0E7DF06D8
:107EF00018F0F601B7BEE89568D007B600FCFDCFD4
:107F0000A601A0E0B1E02C9130E011968C91119780
:107F100090E0982F8827822B932B1296FA010C0160
:107F200087BEE89511244E5F5F4FF1E0A038BF0790
:107F300051F7F601A7BEE89507B600FCFDCF97BE46
:107F4000E89526C08437B1F42ED02DD0F82E2BD052
:107F50003CD0F601EF2C8F010F5F1F4F84911BD097
:107F6000EA94F801C1F70894C11CD11CFA94CF0C13
:107F7000D11C0EC0853739F428D08EE10CD085E9AC
:107F80000AD08FE07ACF813511F488E018D01DD067
:107F900080E101D065CF982F8091C00085FFFCCF94
:107FA0009093C60008958091C00087FFFCCF809118
:107FB000C00084FD01C0A8958091C6000895E0E648
:107FC000F0E098E1908380830895EDDF803219F02E
:107FD00088E0F5DFFFCF84E1DECF1F93182FE3DFCA
:107FE0001150E9F7F2DF1F91089580E0E8DFEE27F6
:047FF000FF270994CA
:027FFE00040479
:0400000300007E007B
:00000001FF
